{
  "address": "0x4D46c584A47ed0B8F5b5B569Bf20b8328d39fca3",
  "abi": [
    {
      "inputs": [],
      "name": "AlreadySet",
      "type": "error"
    },
    {
      "inputs": [],
      "name": "ZeroAddress",
      "type": "error"
    },
    {
      "anonymous": false,
      "inputs": [
        {
          "indexed": false,
          "internalType": "bytes32",
          "name": "_id",
          "type": "bytes32"
        },
        {
          "indexed": false,
          "internalType": "bytes32",
          "name": "_chain",
          "type": "bytes32"
        },
        {
          "indexed": false,
          "internalType": "address",
          "name": "_assetAddress",
          "type": "address"
        },
        {
          "indexed": false,
          "internalType": "uint256",
          "name": "_tokenId",
          "type": "uint256"
        }
      ],
      "name": "IDSet",
      "type": "event"
    },
    {
      "anonymous": false,
      "inputs": [
        {
          "indexed": true,
          "internalType": "address",
          "name": "previousOwner",
          "type": "address"
        },
        {
          "indexed": true,
          "internalType": "address",
          "name": "newOwner",
          "type": "address"
        }
      ],
      "name": "OwnershipTransferred",
      "type": "event"
    },
    {
      "anonymous": false,
      "inputs": [
        {
          "indexed": false,
          "internalType": "address",
          "name": "account",
          "type": "address"
        }
      ],
      "name": "Paused",
      "type": "event"
    },
    {
      "anonymous": false,
      "inputs": [
        {
          "indexed": false,
          "internalType": "address",
          "name": "account",
          "type": "address"
        }
      ],
      "name": "Unpaused",
      "type": "event"
    },
    {
      "inputs": [
        {
          "internalType": "bytes32",
          "name": "",
          "type": "bytes32"
        }
      ],
      "name": "idToAsset",
      "outputs": [
        {
          "internalType": "bytes32",
          "name": "chain",
          "type": "bytes32"
        },
        {
          "internalType": "address",
          "name": "assetAddress",
          "type": "address"
        },
        {
          "internalType": "uint256",
          "name": "tokenId",
          "type": "uint256"
        }
      ],
      "stateMutability": "view",
      "type": "function"
    },
    {
      "inputs": [],
      "name": "owner",
      "outputs": [
        {
          "internalType": "address",
          "name": "",
          "type": "address"
        }
      ],
      "stateMutability": "view",
      "type": "function"
    },
    {
      "inputs": [],
      "name": "paused",
      "outputs": [
        {
          "internalType": "bool",
          "name": "",
          "type": "bool"
        }
      ],
      "stateMutability": "view",
      "type": "function"
    },
    {
      "inputs": [],
      "name": "renounceOwnership",
      "outputs": [],
      "stateMutability": "nonpayable",
      "type": "function"
    },
    {
      "inputs": [
        {
          "internalType": "bytes32",
          "name": "_id",
          "type": "bytes32"
        },
        {
          "internalType": "bytes32",
          "name": "_chain",
          "type": "bytes32"
        },
        {
          "internalType": "address",
          "name": "_assetAddress",
          "type": "address"
        },
        {
          "internalType": "uint256",
          "name": "_tokenId",
          "type": "uint256"
        }
      ],
      "name": "setIdToAsset",
      "outputs": [],
      "stateMutability": "nonpayable",
      "type": "function"
    },
    {
      "inputs": [
        {
          "internalType": "bytes32[]",
          "name": "_ids",
          "type": "bytes32[]"
        },
        {
          "internalType": "bytes32[]",
          "name": "_chains",
          "type": "bytes32[]"
        },
        {
          "internalType": "address[]",
          "name": "_assetAddresses",
          "type": "address[]"
        },
        {
          "internalType": "uint256[]",
          "name": "_tokenIds",
          "type": "uint256[]"
        }
      ],
      "name": "setIdsToAssets",
      "outputs": [],
      "stateMutability": "nonpayable",
      "type": "function"
    },
    {
      "inputs": [
        {
          "internalType": "bytes32",
          "name": "_chain",
          "type": "bytes32"
        },
        {
          "internalType": "address",
          "name": "_assetAddress",
          "type": "address"
        },
        {
          "internalType": "bytes32[]",
          "name": "_ids",
          "type": "bytes32[]"
        },
        {
          "internalType": "uint256[]",
          "name": "_tokenIds",
          "type": "uint256[]"
        }
      ],
      "name": "setIdsToCollection",
      "outputs": [],
      "stateMutability": "nonpayable",
      "type": "function"
    },
    {
      "inputs": [
        {
          "internalType": "address",
          "name": "newOwner",
          "type": "address"
        }
      ],
      "name": "transferOwnership",
      "outputs": [],
      "stateMutability": "nonpayable",
      "type": "function"
    }
  ],
  "transactionHash": "0xb434f82aef223d5b2fe770226f84a0aab494f060b7719f788eb7de04b32ae557",
  "args": [],
  "numDeployments": 1,
  "solcInputHash": "49ed41926a8ebe20a1014386ec268aa3",
  "bytecode": "0x608060405234801561001057600080fd5b5061001a3361002c565b6000805460ff60a01b1916905561007c565b600080546001600160a01b038381166001600160a01b0319831681178455604051919092169283917f8be0079c531659141344cd1fd0a4f28419497f9722a3daafe3b4186f6b6457e09190a35050565b610a0b8061008b6000396000f3fe608060405234801561001057600080fd5b50600436106100885760003560e01c8063b820050e1161005b578063b820050e14610131578063d20a622e14610144578063e6563ce014610157578063f2fde38b1461016a57600080fd5b80635c975abb1461008d5780636dde9cd4146100af578063715018a61461010c5780638da5cb5b14610116575b600080fd5b600054600160a01b900460ff1660405190151581526020015b60405180910390f35b6100e96100bd3660046106e9565b60016020819052600091825260409091208054918101546002909101546001600160a01b039091169083565b604080519384526001600160a01b039092166020840152908201526060016100a6565b61011461017d565b005b6000546040516001600160a01b0390911681526020016100a6565b61011461013f3660046107f4565b610191565b6101146101523660046108fb565b61035a565b610114610165366004610960565b6104b6565b61011461017836600461099d565b6105c1565b61018561063f565b61018f6000610699565b565b60005b84518110156103535760008582815181106101b1576101b16109bf565b6020026020010151905060008583815181106101cf576101cf6109bf565b6020026020010151905060008584815181106101ed576101ed6109bf565b60200260200101519050600085858151811061020b5761020b6109bf565b602090810291909101810151600086815260019283905260409020909101549091506001600160a01b0316156102545760405163a741a04560e01b815260040160405180910390fd5b60006001600160a01b0316878681518110610271576102716109bf565b60200260200101516001600160a01b0316036102a05760405163d92e233d60e01b815260040160405180910390fd5b60408051606080820183528582526001600160a01b03858116602080850182815285870188815260008c815260018085529089902097518855915191870180546001600160a01b0319169290951691909117909355915160029094019390935583518881529081018790529283019190915281018290527fe4fe3dc7745c90663c6d5224533c5a0d230f4d9ea5e92578285995e9f146f4939060800160405180910390a184600101945050505050610194565b5050505050565b6001600160a01b0383166103815760405163d92e233d60e01b815260040160405180910390fd5b60005b82518110156103535760008382815181106103a1576103a16109bf565b6020026020010151905060008383815181106103bf576103bf6109bf565b602090810291909101810151600084815260019283905260409020909101549091506001600160a01b0316156104085760405163a741a04560e01b815260040160405180910390fd5b60408051606080820183528982526001600160a01b03898116602080850182815285870188815260008a815260018085529089902097518855915191870180546001600160a01b0319169290951691909117909355915160029094019390935583518681529081018b90529283019190915281018290527fe4fe3dc7745c90663c6d5224533c5a0d230f4d9ea5e92578285995e9f146f4939060800160405180910390a15050600101610384565b600084815260016020819052604090912001546001600160a01b0316156104f05760405163a741a04560e01b815260040160405180910390fd5b6001600160a01b0382166105175760405163d92e233d60e01b815260040160405180910390fd5b60408051606080820183528582526001600160a01b03858116602080850182815285870188815260008c815260018085529089902097518855915191870180546001600160a01b0319169290951691909117909355915160029094019390935583518881529081018790529283019190915281018290527fe4fe3dc7745c90663c6d5224533c5a0d230f4d9ea5e92578285995e9f146f4939060800160405180910390a150505050565b6105c961063f565b6001600160a01b0381166106335760405162461bcd60e51b815260206004820152602660248201527f4f776e61626c653a206e6577206f776e657220697320746865207a65726f206160448201526564647265737360d01b60648201526084015b60405180910390fd5b61063c81610699565b50565b6000546001600160a01b0316331461018f5760405162461bcd60e51b815260206004820181905260248201527f4f776e61626c653a2063616c6c6572206973206e6f7420746865206f776e6572604482015260640161062a565b600080546001600160a01b038381166001600160a01b0319831681178455604051919092169283917f8be0079c531659141344cd1fd0a4f28419497f9722a3daafe3b4186f6b6457e09190a35050565b6000602082840312156106fb57600080fd5b5035919050565b634e487b7160e01b600052604160045260246000fd5b604051601f8201601f1916810167ffffffffffffffff8111828210171561074157610741610702565b604052919050565b600067ffffffffffffffff82111561076357610763610702565b5060051b60200190565b600082601f83011261077e57600080fd5b8135602061079361078e83610749565b610718565b82815260059290921b840181019181810190868411156107b257600080fd5b8286015b848110156107cd57803583529183019183016107b6565b509695505050505050565b80356001600160a01b03811681146107ef57600080fd5b919050565b6000806000806080858703121561080a57600080fd5b843567ffffffffffffffff8082111561082257600080fd5b61082e8883890161076d565b955060209150818701358181111561084557600080fd5b61085189828a0161076d565b95505060408701358181111561086657600080fd5b8701601f8101891361087757600080fd5b803561088561078e82610749565b81815260059190911b8201840190848101908b8311156108a457600080fd5b928501925b828410156108c9576108ba846107d8565b825292850192908501906108a9565b965050505060608701359150808211156108e257600080fd5b506108ef8782880161076d565b91505092959194509250565b6000806000806080858703121561091157600080fd5b84359350610921602086016107d8565b9250604085013567ffffffffffffffff8082111561093e57600080fd5b61094a8883890161076d565b935060608701359150808211156108e257600080fd5b6000806000806080858703121561097657600080fd5b843593506020850135925061098d604086016107d8565b9396929550929360600135925050565b6000602082840312156109af57600080fd5b6109b8826107d8565b9392505050565b634e487b7160e01b600052603260045260246000fdfea264697066735822122025369f77edee6c6224f27075910afaa6f5a6fcf4186d94bec1e627ad1d7fed9464736f6c634300080d0033",
  "devdoc": {
    "kind": "dev",
    "methods": {
      "owner()": {
        "details": "Returns the address of the current owner."
      },
      "paused()": {
        "details": "Returns true if the contract is paused, and false otherwise."
      },
      "renounceOwnership()": {
        "details": "Leaves the contract without owner. It will not be possible to call `onlyOwner` functions anymore. Can only be called by the current owner. NOTE: Renouncing ownership will leave the contract without an owner, thereby removing any functionality that is only available to the owner."
      },
      "transferOwnership(address)": {
        "details": "Transfers ownership of the contract to a new account (`newOwner`). Can only be called by the current owner."
      }
    },
    "version": 1
  },
  "userdoc": {
    "kind": "user",
    "methods": {},
    "version": 1
  },
  "storageLayout": {
    "storage": [
      {
        "astId": 400,
        "contract": "src/contracts/UnicMapper.sol:UnicMapper",
        "label": "_owner",
        "offset": 0,
        "slot": "0",
        "type": "t_address"
      },
      {
        "astId": 523,
        "contract": "src/contracts/UnicMapper.sol:UnicMapper",
        "label": "_paused",
        "offset": 20,
        "slot": "0",
        "type": "t_bool"
      },
      {
        "astId": 3588,
        "contract": "src/contracts/UnicMapper.sol:UnicMapper",
        "label": "idToAsset",
        "offset": 0,
        "slot": "1",
        "type": "t_mapping(t_bytes32,t_struct(AssetInfo)3926_storage)"
      }
    ],
    "types": {
      "t_address": {
        "encoding": "inplace",
        "label": "address",
        "numberOfBytes": "20"
      },
      "t_bool": {
        "encoding": "inplace",
        "label": "bool",
        "numberOfBytes": "1"
      },
      "t_bytes32": {
        "encoding": "inplace",
        "label": "bytes32",
        "numberOfBytes": "32"
      },
      "t_mapping(t_bytes32,t_struct(AssetInfo)3926_storage)": {
        "encoding": "mapping",
        "key": "t_bytes32",
        "label": "mapping(bytes32 => struct IUnicMapper.AssetInfo)",
        "numberOfBytes": "32",
        "value": "t_struct(AssetInfo)3926_storage"
      },
      "t_struct(AssetInfo)3926_storage": {
        "encoding": "inplace",
        "label": "struct IUnicMapper.AssetInfo",
        "members": [
          {
            "astId": 3921,
            "contract": "src/contracts/UnicMapper.sol:UnicMapper",
            "label": "chain",
            "offset": 0,
            "slot": "0",
            "type": "t_bytes32"
          },
          {
            "astId": 3923,
            "contract": "src/contracts/UnicMapper.sol:UnicMapper",
            "label": "assetAddress",
            "offset": 0,
            "slot": "1",
            "type": "t_address"
          },
          {
            "astId": 3925,
            "contract": "src/contracts/UnicMapper.sol:UnicMapper",
            "label": "tokenId",
            "offset": 0,
            "slot": "2",
            "type": "t_uint256"
          }
        ],
        "numberOfBytes": "96"
      },
      "t_uint256": {
        "encoding": "inplace",
        "label": "uint256",
        "numberOfBytes": "32"
      }
    }
  }
}