{
  "address": "0x287fAb9bf5F74d41B3627CE883f854fB289e388E",
  "abi": [
    {
      "inputs": [],
      "name": "ZeroAddress",
      "type": "error"
    },
    {
      "anonymous": false,
      "inputs": [
        {
          "indexed": false,
          "internalType": "address",
          "name": "_contract",
          "type": "address"
        },
        {
          "indexed": false,
          "internalType": "address",
          "name": "_creator",
          "type": "address"
        },
        {
          "indexed": false,
          "internalType": "string",
          "name": "_uri",
          "type": "string"
        },
        {
          "indexed": false,
          "internalType": "uint256",
          "name": "_royalties",
          "type": "uint256"
        }
      ],
      "name": "ERC1155Deployed",
      "type": "event"
    },
    {
      "anonymous": false,
      "inputs": [
        {
          "indexed": true,
          "internalType": "address",
          "name": "previousOwner",
          "type": "address"
        },
        {
          "indexed": true,
          "internalType": "address",
          "name": "newOwner",
          "type": "address"
        }
      ],
      "name": "OwnershipTransferred",
      "type": "event"
    },
    {
      "anonymous": false,
      "inputs": [
        {
          "indexed": false,
          "internalType": "address",
          "name": "account",
          "type": "address"
        }
      ],
      "name": "Paused",
      "type": "event"
    },
    {
      "anonymous": false,
      "inputs": [
        {
          "indexed": false,
          "internalType": "address",
          "name": "account",
          "type": "address"
        }
      ],
      "name": "Unpaused",
      "type": "event"
    },
    {
      "inputs": [
        {
          "internalType": "string",
          "name": "_uri",
          "type": "string"
        },
        {
          "internalType": "uint256",
          "name": "_royalties",
          "type": "uint256"
        }
      ],
      "name": "deployERC1155",
      "outputs": [
        {
          "internalType": "address",
          "name": "newERC1155",
          "type": "address"
        }
      ],
      "stateMutability": "nonpayable",
      "type": "function"
    },
    {
      "inputs": [],
      "name": "owner",
      "outputs": [
        {
          "internalType": "address",
          "name": "",
          "type": "address"
        }
      ],
      "stateMutability": "view",
      "type": "function"
    },
    {
      "inputs": [],
      "name": "paused",
      "outputs": [
        {
          "internalType": "bool",
          "name": "",
          "type": "bool"
        }
      ],
      "stateMutability": "view",
      "type": "function"
    },
    {
      "inputs": [],
      "name": "renounceOwnership",
      "outputs": [],
      "stateMutability": "nonpayable",
      "type": "function"
    },
    {
      "inputs": [
        {
          "internalType": "address",
          "name": "newOwner",
          "type": "address"
        }
      ],
      "name": "transferOwnership",
      "outputs": [],
      "stateMutability": "nonpayable",
      "type": "function"
    }
  ],
  "transactionHash": "0x967ae05f46ecbc34885d2066cb2f62713d961c43c29921463cd6d14bfade3f3c",
  "args": [],
  "numDeployments": 3,
  "solcInputHash": "3ed0637ec5513b737efa8b4532041950",
  "bytecode": "0x608060405234801561001057600080fd5b5061001a3361002c565b6000805460ff60a01b1916905561007c565b600080546001600160a01b038381166001600160a01b0319831681178455604051919092169283917f8be0079c531659141344cd1fd0a4f28419497f9722a3daafe3b4186f6b6457e09190a35050565b6133538061008b6000396000f3fe60806040523480156200001157600080fd5b50600436106200005e5760003560e01c80635c975abb1462000063578063715018a6146200008557806380aa201514620000915780638da5cb5b14620000c1578063f2fde38b14620000d3575b600080fd5b600054600160a01b900460ff1660405190151581526020015b60405180910390f35b6200008f620000ea565b005b620000a8620000a236600462000390565b62000102565b6040516001600160a01b0390911681526020016200007c565b6000546001600160a01b0316620000a8565b6200008f620000e43660046200044f565b620001ee565b620000f462000271565b620001006000620002cd565b565b60006200010e6200031d565b8282336040516200011f906200036c565b6200012d93929190620004d1565b604051809103906000f0801580156200014a573d6000803e3d6000fd5b5060405163f2fde38b60e01b81523360048201529091506001600160a01b0382169063f2fde38b90602401600060405180830381600087803b1580156200019057600080fd5b505af1158015620001a5573d6000803e3d6000fd5b505050507f51af02bd4bf0f605d8c1576d387be351956a5b12769a24b4a5b9b1cdacbc66f581338585604051620001e0949392919062000506565b60405180910390a192915050565b620001f862000271565b6001600160a01b038116620002635760405162461bcd60e51b815260206004820152602660248201527f4f776e61626c653a206e6577206f776e657220697320746865207a65726f206160448201526564647265737360d01b60648201526084015b60405180910390fd5b6200026e81620002cd565b50565b6000546001600160a01b03163314620001005760405162461bcd60e51b815260206004820181905260248201527f4f776e61626c653a2063616c6c6572206973206e6f7420746865206f776e657260448201526064016200025a565b600080546001600160a01b038381166001600160a01b0319831681178455604051919092169283917f8be0079c531659141344cd1fd0a4f28419497f9722a3daafe3b4186f6b6457e09190a35050565b600054600160a01b900460ff1615620001005760405162461bcd60e51b815260206004820152601060248201526f14185d5cd8589b194e881c185d5cd95960821b60448201526064016200025a565b612dd8806200054683390190565b634e487b7160e01b600052604160045260246000fd5b60008060408385031215620003a457600080fd5b823567ffffffffffffffff80821115620003bd57600080fd5b818501915085601f830112620003d257600080fd5b813581811115620003e757620003e76200037a565b604051601f8201601f19908116603f011681019083821181831017156200041257620004126200037a565b816040528281528860208487010111156200042c57600080fd5b826020860160208301376000602093820184015298969091013596505050505050565b6000602082840312156200046257600080fd5b81356001600160a01b03811681146200047a57600080fd5b9392505050565b6000815180845260005b81811015620004a9576020818501810151868301820152016200048b565b81811115620004bc576000602083870101525b50601f01601f19169290920160200192915050565b606081526000620004e6606083018662000481565b6020830194909452506001600160a01b0391909116604090910152919050565b6001600160a01b03858116825284166020820152608060408201819052600090620005349083018562000481565b90508260608301529594505050505056fe6101406040523480156200001257600080fd5b5060405162002dd838038062002dd88339810160408190526200003591620003c1565b6040518060400160405280600c81526020016b2ab734b196ab37bab1b432b960a11b815250604051806040016040528060018152602001603160f81b8152508462000086816200016260201b60201c565b50815160209283012081519183019190912060e08290526101008190524660a0818152604080517f8b73c3c69bb8fe3d512ecc4cf759cc79239f7b179b0ffacaa9a75d522b39400f818801819052818301969096526060810194909452608080850193909352308483018190528151808603909301835260c0948501909152815191909501209052919091526101205262000121336200017b565b6200012d8183620001cd565b620001597f9f2df0fed2c77648de5860a4cc508cd0818c85b8b8a1ab4ceeef8d981c8956a6826200023b565b505050620004f8565b805162000177906002906020840190620002e8565b5050565b600380546001600160a01b038381166001600160a01b0319831681179093556040519116919082907f8be0079c531659141344cd1fd0a4f28419497f9722a3daafe3b4186f6b6457e090600090a35050565b612710811115620001f15760405163c2b03beb60e01b815260040160405180910390fd5b604080518082019091526001600160a01b0390921680835262ffffff909116602090920182905260058054600160a01b9093026001600160b81b0319909316909117919091179055565b60008281526004602090815260408083206001600160a01b038516845290915290205462000177908390839060ff16620001775760008281526004602090815260408083206001600160a01b03851684529091529020805460ff19166001179055620002a43390565b6001600160a01b0316816001600160a01b0316837f2f8788117e7eff1d82e926ec794901d17c78024a50270940304540a733656f0d60405160405180910390a45050565b828054620002f690620004bc565b90600052602060002090601f0160209004810192826200031a576000855562000365565b82601f106200033557805160ff191683800117855562000365565b8280016001018555821562000365579182015b828111156200036557825182559160200191906001019062000348565b506200037392915062000377565b5090565b5b8082111562000373576000815560010162000378565b634e487b7160e01b600052604160045260246000fd5b80516001600160a01b0381168114620003bc57600080fd5b919050565b600080600060608486031215620003d757600080fd5b83516001600160401b0380821115620003ef57600080fd5b818601915086601f8301126200040457600080fd5b8151818111156200041957620004196200038e565b604051601f8201601f19908116603f011681019083821181831017156200044457620004446200038e565b816040528281526020935089848487010111156200046157600080fd5b600091505b8282101562000485578482018401518183018501529083019062000466565b82821115620004975760008484830101525b8097505050508086015193505050620004b360408501620003a4565b90509250925092565b600181811c90821680620004d157607f821691505b602082108103620004f257634e487b7160e01b600052602260045260246000fd5b50919050565b60805160a05160c05160e0516101005161012051612890620005486000396000611c6301526000611cb201526000611c8d01526000611be601526000611c1001526000611c3a01526128906000f3fe60806040526004361061014a5760003560e01c8063715018a6116100b6578063d547741f1161006f578063d547741f146103eb578063e322ad2b1461040b578063e985e9c51461042d578063f242432a14610476578063f2fde38b14610496578063f5298aca146104b657600080fd5b8063715018a6146103255780638da5cb5b1461033a57806391d1485414610362578063a217fddf14610382578063a22cb46514610397578063d5391393146103b757600080fd5b80632eb2c2d6116101085780632eb2c2d6146102705780632f2ff15d1461029057806336568abe146102b05780633ccfd60b146102d05780634e1273f4146102e55780635acade481461031257600080fd5b8062fdd58e1461014f57806301ffc9a7146101825780630e89341c146101b2578063156e29f6146101df578063248a9ca3146102015780632a55205a14610231575b600080fd5b34801561015b57600080fd5b5061016f61016a366004611e45565b6104d6565b6040519081526020015b60405180910390f35b34801561018e57600080fd5b506101a261019d366004611e85565b61056c565b6040519015158152602001610179565b3480156101be57600080fd5b506101d26101cd366004611ea2565b610597565b6040516101799190611f17565b3480156101eb57600080fd5b506101ff6101fa366004611f2a565b61062b565b005b34801561020d57600080fd5b5061016f61021c366004611ea2565b60009081526004602052604090206001015490565b34801561023d57600080fd5b5061025161024c366004611f5d565b610653565b604080516001600160a01b039093168352602083019190915201610179565b34801561027c57600080fd5b506101ff61028b3660046120cb565b6106a8565b34801561029c57600080fd5b506101ff6102ab366004612175565b6106f4565b3480156102bc57600080fd5b506101ff6102cb366004612175565b610719565b3480156102dc57600080fd5b506101ff610797565b3480156102f157600080fd5b506103056103003660046121a1565b6107e2565b604051610179919061229d565b61016f6103203660046122b0565b61090c565b34801561033157600080fd5b506101ff610a03565b34801561034657600080fd5b506003546040516001600160a01b039091168152602001610179565b34801561036e57600080fd5b506101a261037d366004612175565b610a17565b34801561038e57600080fd5b5061016f600081565b3480156103a357600080fd5b506101ff6103b2366004612305565b610a42565b3480156103c357600080fd5b5061016f7f9f2df0fed2c77648de5860a4cc508cd0818c85b8b8a1ab4ceeef8d981c8956a681565b3480156103f757600080fd5b506101ff610406366004612175565b610a4d565b34801561041757600080fd5b503360009081526006602052604090205461016f565b34801561043957600080fd5b506101a2610448366004612336565b6001600160a01b03918216600090815260016020908152604080832093909416825291909152205460ff1690565b34801561048257600080fd5b506101ff610491366004612360565b610a72565b3480156104a257600080fd5b506101ff6104b13660046123c5565b610ab7565b3480156104c257600080fd5b506101ff6104d1366004611f2a565b610b30565b60006001600160a01b0383166105465760405162461bcd60e51b815260206004820152602a60248201527f455243313135353a2061646472657373207a65726f206973206e6f742061207660448201526930b634b21037bbb732b960b11b60648201526084015b60405180910390fd5b506000908152602081815260408083206001600160a01b03949094168352929052205490565b60006001600160e01b03198216631958019560e21b1480610591575061059182610b6c565b92915050565b6060600280546105a6906123e0565b80601f01602080910402602001604051908101604052809291908181526020018280546105d2906123e0565b801561061f5780601f106105f45761010080835404028352916020019161061f565b820191906000526020600020905b81548152906001019060200180831161060257829003601f168201915b50505050509050919050565b610633610b91565b61064e83838360405180602001604052806000815250610beb565b505050565b604080518082019091526005546001600160a01b038116808352600160a01b90910462ffffff16602083018190529091600091612710906106949086612430565b61069e919061244f565b9150509250929050565b6001600160a01b0385163314806106c457506106c48533610448565b6106e05760405162461bcd60e51b815260040161053d90612471565b6106ed8585858585610cff565b5050505050565b60008281526004602052604090206001015461070f81610edc565b61064e8383610ee6565b6001600160a01b03811633146107895760405162461bcd60e51b815260206004820152602f60248201527f416363657373436f6e74726f6c3a2063616e206f6e6c792072656e6f756e636560448201526e103937b632b9903337b91039b2b63360891b606482015260840161053d565b6107938282610f6c565b5050565b61079f610b91565b3360008181526006602052604080822080549083905590519091839183156108fc0291849190818181858888f1935050505015801561064e573d6000803e3d6000fd5b606081518351146108475760405162461bcd60e51b815260206004820152602960248201527f455243313135353a206163636f756e747320616e6420696473206c656e677468604482015268040dad2e6dac2e8c6d60bb1b606482015260840161053d565b6000835167ffffffffffffffff81111561086357610863611f7f565b60405190808252806020026020018201604052801561088c578160200160208202803683370190505b50905060005b8451811015610904576108d78582815181106108b0576108b06124c0565b60200260200101518583815181106108ca576108ca6124c0565b60200260200101516104d6565b8282815181106108e9576108e96124c0565b60209081029190910101526108fd816124d6565b9050610892565b509392505050565b60008061091883610fd3565b90506109447f9f2df0fed2c77648de5860a4cc508cd0818c85b8b8a1ab4ceeef8d981c8956a682610a17565b61096157604051638baa579f60e01b815260040160405180910390fd5b82602001353410156109865760405163356680b760e01b815260040160405180910390fd5b6109a9818460000135856040013560405180602001604052806000815250610beb565b6109cd81858560000135866040013560405180602001604052806000815250611033565b6001600160a01b038116600090815260066020526040812080543492906109f59084906124ef565b909155505091359392505050565b610a0b610b91565b610a15600061115d565b565b60009182526004602090815260408084206001600160a01b0393909316845291905290205460ff1690565b6107933383836111af565b600082815260046020526040902060010154610a6881610edc565b61064e8383610f6c565b6001600160a01b038516331480610a8e5750610a8e8533610448565b610aaa5760405162461bcd60e51b815260040161053d90612471565b6106ed8585858585611033565b610abf610b91565b6001600160a01b038116610b245760405162461bcd60e51b815260206004820152602660248201527f4f776e61626c653a206e6577206f776e657220697320746865207a65726f206160448201526564647265737360d01b606482015260840161053d565b610b2d8161115d565b50565b610b38610b91565b336001600160a01b03841614610b61576040516330cd747160e01b815260040160405180910390fd5b61064e83838361128f565b60006001600160e01b03198216637965db0b60e01b148061059157506105918261140b565b6003546001600160a01b03163314610a155760405162461bcd60e51b815260206004820181905260248201527f4f776e61626c653a2063616c6c6572206973206e6f7420746865206f776e6572604482015260640161053d565b6001600160a01b038416610c4b5760405162461bcd60e51b815260206004820152602160248201527f455243313135353a206d696e7420746f20746865207a65726f206164647265736044820152607360f81b606482015260840161053d565b336000610c5785611430565b90506000610c6485611430565b90506000868152602081815260408083206001600160a01b038b16845290915281208054879290610c969084906124ef565b909155505060408051878152602081018790526001600160a01b03808a1692600092918716917fc3d58168c5ae7397731d063d5bbf3d657854427343f4c083240f7aacaa2d0f62910160405180910390a4610cf68360008989898961147b565b50505050505050565b8151835114610d615760405162461bcd60e51b815260206004820152602860248201527f455243313135353a2069647320616e6420616d6f756e7473206c656e677468206044820152670dad2e6dac2e8c6d60c31b606482015260840161053d565b6001600160a01b038416610d875760405162461bcd60e51b815260040161053d90612507565b3360005b8451811015610e6e576000858281518110610da857610da86124c0565b602002602001015190506000858381518110610dc657610dc66124c0565b602090810291909101810151600084815280835260408082206001600160a01b038e168352909352919091205490915081811015610e165760405162461bcd60e51b815260040161053d9061254c565b6000838152602081815260408083206001600160a01b038e8116855292528083208585039055908b16825281208054849290610e539084906124ef565b9250508190555050505080610e67906124d6565b9050610d8b565b50846001600160a01b0316866001600160a01b0316826001600160a01b03167f4a39dc06d4c0dbc64b70af90fd698a233a518aa5d07e595d983b8c0526c8f7fb8787604051610ebe929190612596565b60405180910390a4610ed48187878787876115d6565b505050505050565b610b2d8133611691565b610ef08282610a17565b6107935760008281526004602090815260408083206001600160a01b03851684529091529020805460ff19166001179055610f283390565b6001600160a01b0316816001600160a01b0316837f2f8788117e7eff1d82e926ec794901d17c78024a50270940304540a733656f0d60405160405180910390a45050565b610f768282610a17565b156107935760008281526004602090815260408083206001600160a01b0385168085529252808320805460ff1916905551339285917ff6391f5c32d9c69d2a47ea670b442974b53935d1edc7fd64eb21e047a839171b9190a45050565b600080610fdf836116f5565b905061102c81610ff260608601866125c4565b8080601f01602080910402602001604051908101604052809392919081815260200183838082843760009201919091525061175f92505050565b9392505050565b6001600160a01b0384166110595760405162461bcd60e51b815260040161053d90612507565b33600061106585611430565b9050600061107285611430565b90506000868152602081815260408083206001600160a01b038c168452909152902054858110156110b55760405162461bcd60e51b815260040161053d9061254c565b6000878152602081815260408083206001600160a01b038d8116855292528083208985039055908a168252812080548892906110f29084906124ef565b909155505060408051888152602081018890526001600160a01b03808b16928c821692918816917fc3d58168c5ae7397731d063d5bbf3d657854427343f4c083240f7aacaa2d0f62910160405180910390a4611152848a8a8a8a8a61147b565b505050505050505050565b600380546001600160a01b038381166001600160a01b0319831681179093556040519116919082907f8be0079c531659141344cd1fd0a4f28419497f9722a3daafe3b4186f6b6457e090600090a35050565b816001600160a01b0316836001600160a01b0316036112225760405162461bcd60e51b815260206004820152602960248201527f455243313135353a2073657474696e6720617070726f76616c20737461747573604482015268103337b91039b2b63360b91b606482015260840161053d565b6001600160a01b03838116600081815260016020908152604080832094871680845294825291829020805460ff191686151590811790915591519182527f17307eab39ab6107e8899845ad3d59bd9653f200f220920489ca2b5937696c31910160405180910390a3505050565b6001600160a01b0383166112f15760405162461bcd60e51b815260206004820152602360248201527f455243313135353a206275726e2066726f6d20746865207a65726f206164647260448201526265737360e81b606482015260840161053d565b3360006112fd84611430565b9050600061130a84611430565b60408051602080820183526000918290528882528181528282206001600160a01b038b16835290522054909150848110156113935760405162461bcd60e51b8152602060048201526024808201527f455243313135353a206275726e20616d6f756e7420657863656564732062616c604482015263616e636560e01b606482015260840161053d565b6000868152602081815260408083206001600160a01b038b81168086529184528285208a8703905582518b81529384018a90529092908816917fc3d58168c5ae7397731d063d5bbf3d657854427343f4c083240f7aacaa2d0f62910160405180910390a4604080516020810190915260009052610cf6565b60006001600160e01b0319821663152a902d60e11b148061059157506105918261177b565b6040805160018082528183019092526060916000919060208083019080368337019050509050828160008151811061146a5761146a6124c0565b602090810291909101015292915050565b6001600160a01b0384163b15610ed45760405163f23a6e6160e01b81526001600160a01b0385169063f23a6e61906114bf908990899088908890889060040161260b565b6020604051808303816000875af19250505080156114fa575060408051601f3d908101601f191682019092526114f791810190612650565b60015b6115a65761150661266d565b806308c379a00361153f575061151a612688565b806115255750611541565b8060405162461bcd60e51b815260040161053d9190611f17565b505b60405162461bcd60e51b815260206004820152603460248201527f455243313135353a207472616e7366657220746f206e6f6e20455243313135356044820152732932b1b2b4bb32b91034b6b83632b6b2b73a32b960611b606482015260840161053d565b6001600160e01b0319811663f23a6e6160e01b14610cf65760405162461bcd60e51b815260040161053d90612712565b6001600160a01b0384163b15610ed45760405163bc197c8160e01b81526001600160a01b0385169063bc197c819061161a908990899088908890889060040161275a565b6020604051808303816000875af1925050508015611655575060408051601f3d908101601f1916820190925261165291810190612650565b60015b6116615761150661266d565b6001600160e01b0319811663bc197c8160e01b14610cf65760405162461bcd60e51b815260040161053d90612712565b61169b8282610a17565b610793576116b3816001600160a01b031660146117cb565b6116be8360206117cb565b6040516020016116cf9291906127b8565b60408051601f198184030181529082905262461bcd60e51b825261053d91600401611f17565b604080517f273296f6b8425ecf436e74c1375a9a709300fa15a853da3f7c10240376f93de860208281019190915283358284015283013560608201529082013560808201526000906105919060a00160405160208183030381529060405280519060200120611967565b600080600061176e85856119b5565b9150915061090481611a23565b60006001600160e01b03198216636cdb3d1360e11b14806117ac57506001600160e01b031982166303a24d0760e21b145b8061059157506301ffc9a760e01b6001600160e01b0319831614610591565b606060006117da836002612430565b6117e59060026124ef565b67ffffffffffffffff8111156117fd576117fd611f7f565b6040519080825280601f01601f191660200182016040528015611827576020820181803683370190505b509050600360fc1b81600081518110611842576118426124c0565b60200101906001600160f81b031916908160001a905350600f60fb1b81600181518110611871576118716124c0565b60200101906001600160f81b031916908160001a9053506000611895846002612430565b6118a09060016124ef565b90505b6001811115611918576f181899199a1a9b1b9c1cb0b131b232b360811b85600f16601081106118d4576118d46124c0565b1a60f81b8282815181106118ea576118ea6124c0565b60200101906001600160f81b031916908160001a90535060049490941c936119118161282d565b90506118a3565b50831561102c5760405162461bcd60e51b815260206004820181905260248201527f537472696e67733a20686578206c656e67746820696e73756666696369656e74604482015260640161053d565b6000610591611974611bd9565b8360405161190160f01b6020820152602281018390526042810182905260009060620160405160208183030381529060405280519060200120905092915050565b60008082516041036119eb5760208301516040840151606085015160001a6119df87828585611d03565b94509450505050611a1c565b8251604003611a145760208301516040840151611a09868383611df0565b935093505050611a1c565b506000905060025b9250929050565b6000816004811115611a3757611a37612844565b03611a3f5750565b6001816004811115611a5357611a53612844565b03611aa05760405162461bcd60e51b815260206004820152601860248201527f45434453413a20696e76616c6964207369676e61747572650000000000000000604482015260640161053d565b6002816004811115611ab457611ab4612844565b03611b015760405162461bcd60e51b815260206004820152601f60248201527f45434453413a20696e76616c6964207369676e6174757265206c656e67746800604482015260640161053d565b6003816004811115611b1557611b15612844565b03611b6d5760405162461bcd60e51b815260206004820152602260248201527f45434453413a20696e76616c6964207369676e6174757265202773272076616c604482015261756560f01b606482015260840161053d565b6004816004811115611b8157611b81612844565b03610b2d5760405162461bcd60e51b815260206004820152602260248201527f45434453413a20696e76616c6964207369676e6174757265202776272076616c604482015261756560f01b606482015260840161053d565b6000306001600160a01b037f000000000000000000000000000000000000000000000000000000000000000016148015611c3257507f000000000000000000000000000000000000000000000000000000000000000046145b15611c5c57507f000000000000000000000000000000000000000000000000000000000000000090565b50604080517f00000000000000000000000000000000000000000000000000000000000000006020808301919091527f0000000000000000000000000000000000000000000000000000000000000000828401527f000000000000000000000000000000000000000000000000000000000000000060608301524660808301523060a0808401919091528351808403909101815260c0909201909252805191012090565b90565b6000807f7fffffffffffffffffffffffffffffff5d576e7357a4501ddfe92f46681b20a0831115611d3a5750600090506003611de7565b8460ff16601b14158015611d5257508460ff16601c14155b15611d635750600090506004611de7565b6040805160008082526020820180845289905260ff881692820192909252606081018690526080810185905260019060a0016020604051602081039080840390855afa158015611db7573d6000803e3d6000fd5b5050604051601f1901519150506001600160a01b038116611de057600060019250925050611de7565b9150600090505b94509492505050565b6000806001600160ff1b03831681611e0d60ff86901c601b6124ef565b9050611e1b87828885611d03565b935093505050935093915050565b80356001600160a01b0381168114611e4057600080fd5b919050565b60008060408385031215611e5857600080fd5b611e6183611e29565b946020939093013593505050565b6001600160e01b031981168114610b2d57600080fd5b600060208284031215611e9757600080fd5b813561102c81611e6f565b600060208284031215611eb457600080fd5b5035919050565b60005b83811015611ed6578181015183820152602001611ebe565b83811115611ee5576000848401525b50505050565b60008151808452611f03816020860160208601611ebb565b601f01601f19169290920160200192915050565b60208152600061102c6020830184611eeb565b600080600060608486031215611f3f57600080fd5b611f4884611e29565b95602085013595506040909401359392505050565b60008060408385031215611f7057600080fd5b50508035926020909101359150565b634e487b7160e01b600052604160045260246000fd5b601f8201601f1916810167ffffffffffffffff81118282101715611fbb57611fbb611f7f565b6040525050565b600067ffffffffffffffff821115611fdc57611fdc611f7f565b5060051b60200190565b600082601f830112611ff757600080fd5b8135602061200482611fc2565b6040516120118282611f95565b83815260059390931b850182019282810191508684111561203157600080fd5b8286015b8481101561204c5780358352918301918301612035565b509695505050505050565b600082601f83011261206857600080fd5b813567ffffffffffffffff81111561208257612082611f7f565b604051612099601f8301601f191660200182611f95565b8181528460208386010111156120ae57600080fd5b816020850160208301376000918101602001919091529392505050565b600080600080600060a086880312156120e357600080fd5b6120ec86611e29565b94506120fa60208701611e29565b9350604086013567ffffffffffffffff8082111561211757600080fd5b61212389838a01611fe6565b9450606088013591508082111561213957600080fd5b61214589838a01611fe6565b9350608088013591508082111561215b57600080fd5b5061216888828901612057565b9150509295509295909350565b6000806040838503121561218857600080fd5b8235915061219860208401611e29565b90509250929050565b600080604083850312156121b457600080fd5b823567ffffffffffffffff808211156121cc57600080fd5b818501915085601f8301126121e057600080fd5b813560206121ed82611fc2565b6040516121fa8282611f95565b83815260059390931b850182019282810191508984111561221a57600080fd5b948201945b8386101561223f5761223086611e29565b8252948201949082019061221f565b9650508601359250508082111561225557600080fd5b5061069e85828601611fe6565b600081518084526020808501945080840160005b8381101561229257815187529582019590820190600101612276565b509495945050505050565b60208152600061102c6020830184612262565b600080604083850312156122c357600080fd5b6122cc83611e29565b9150602083013567ffffffffffffffff8111156122e857600080fd5b8301608081860312156122fa57600080fd5b809150509250929050565b6000806040838503121561231857600080fd5b61232183611e29565b9150602083013580151581146122fa57600080fd5b6000806040838503121561234957600080fd5b61235283611e29565b915061219860208401611e29565b600080600080600060a0868803121561237857600080fd5b61238186611e29565b945061238f60208701611e29565b93506040860135925060608601359150608086013567ffffffffffffffff8111156123b957600080fd5b61216888828901612057565b6000602082840312156123d757600080fd5b61102c82611e29565b600181811c908216806123f457607f821691505b60208210810361241457634e487b7160e01b600052602260045260246000fd5b50919050565b634e487b7160e01b600052601160045260246000fd5b600081600019048311821515161561244a5761244a61241a565b500290565b60008261246c57634e487b7160e01b600052601260045260246000fd5b500490565b6020808252602f908201527f455243313135353a2063616c6c6572206973206e6f7420746f6b656e206f776e60408201526e195c881b9bdc88185c1c1c9bdd9959608a1b606082015260800190565b634e487b7160e01b600052603260045260246000fd5b6000600182016124e8576124e861241a565b5060010190565b600082198211156125025761250261241a565b500190565b60208082526025908201527f455243313135353a207472616e7366657220746f20746865207a65726f206164604082015264647265737360d81b606082015260800190565b6020808252602a908201527f455243313135353a20696e73756666696369656e742062616c616e636520666f60408201526939103a3930b739b332b960b11b606082015260800190565b6040815260006125a96040830185612262565b82810360208401526125bb8185612262565b95945050505050565b6000808335601e198436030181126125db57600080fd5b83018035915067ffffffffffffffff8211156125f657600080fd5b602001915036819003821315611a1c57600080fd5b6001600160a01b03868116825285166020820152604081018490526060810183905260a06080820181905260009061264590830184611eeb565b979650505050505050565b60006020828403121561266257600080fd5b815161102c81611e6f565b600060033d1115611d005760046000803e5060005160e01c90565b600060443d10156126965790565b6040516003193d81016004833e81513d67ffffffffffffffff81602484011181841117156126c657505050505090565b82850191508151818111156126de5750505050505090565b843d87010160208285010111156126f85750505050505090565b61270760208286010187611f95565b509095945050505050565b60208082526028908201527f455243313135353a204552433131353552656365697665722072656a656374656040820152676420746f6b656e7360c01b606082015260800190565b6001600160a01b0386811682528516602082015260a06040820181905260009061278690830186612262565b82810360608401526127988186612262565b905082810360808401526127ac8185611eeb565b98975050505050505050565b7f416363657373436f6e74726f6c3a206163636f756e74200000000000000000008152600083516127f0816017850160208801611ebb565b7001034b99036b4b9b9b4b733903937b6329607d1b6017918401918201528351612821816028840160208801611ebb565b01602801949350505050565b60008161283c5761283c61241a565b506000190190565b634e487b7160e01b600052602160045260246000fdfea26469706673582212202967e360a828c4e2eac75872adabbb06e75444adb3577d6f4c4196eb1480022464736f6c634300080d0033a26469706673582212201cd388ad451c89d88832a8bb6e5e1cb9f8ce199e540193f88688ac6c129dd72d64736f6c634300080d0033",
  "devdoc": {
    "kind": "dev",
    "methods": {
      "owner()": {
        "details": "Returns the address of the current owner."
      },
      "paused()": {
        "details": "Returns true if the contract is paused, and false otherwise."
      },
      "renounceOwnership()": {
        "details": "Leaves the contract without owner. It will not be possible to call `onlyOwner` functions anymore. Can only be called by the current owner. NOTE: Renouncing ownership will leave the contract without an owner, thereby removing any functionality that is only available to the owner."
      },
      "transferOwnership(address)": {
        "details": "Transfers ownership of the contract to a new account (`newOwner`). Can only be called by the current owner."
      }
    },
    "version": 1
  },
  "userdoc": {
    "kind": "user",
    "methods": {},
    "version": 1
  },
  "storageLayout": {
    "storage": [
      {
        "astId": 400,
        "contract": "src/contracts/UnicFactory.sol:UnicFactory",
        "label": "_owner",
        "offset": 0,
        "slot": "0",
        "type": "t_address"
      },
      {
        "astId": 523,
        "contract": "src/contracts/UnicFactory.sol:UnicFactory",
        "label": "_paused",
        "offset": 20,
        "slot": "0",
        "type": "t_bool"
      }
    ],
    "types": {
      "t_address": {
        "encoding": "inplace",
        "label": "address",
        "numberOfBytes": "20"
      },
      "t_bool": {
        "encoding": "inplace",
        "label": "bool",
        "numberOfBytes": "1"
      }
    }
  }
}